:03000000020207F2
:0C020700787FE4F6D8FD75811402024EE9
:100325003F065B4F666D7D077F6F00000000000094
:08033500021300000211000098
:10030500D3EF9400EE6480948040147DFA7C00ED78
:0F0315001D70011CED4C70F7EF1F70E41E80E1AE
:0103240022B6
:10016F00780B7C007D007BFF7A03792F7E007F0662
:10017F001200DE758901758C3C758AB0D2AFD2A999
:10018F00D28C8511088512097B057A00EB4A60260F
:10019F00AE08AF097C007D0A120104EB1B70011A37
:1001AF00240BF8A605AE08AF097C007D0A120104E6
:1001BF008E088F0980D6750ADF7A007B05C3EA6443
:1001CF0080948040BDD2A6740B2BF8E69003259344
:1001DF00F580C2A6D2A7850A80C2A7AF0A78FFEF23
:1001EF0008800123D8FDF50AE4F5807F02FE120393
:0801FF0005EB1B70C81A80C556
:03000B000202935B
:10029300C0E0C0F0C083C082C0D075D000C000C031
:1002A30001C002C003C004C005C006C007758C3C72
:1002B300758AB00514E514700205136414451370B0
:1002C3000CF513F5140512E51270020511AE11AF0A
:1002D30012E4FCFD7B3F7A42790FF8C312015950B7
:1002E30006751100751200D007D006D005D004D0D2
:1002F30003D002D001D000D0D0D082D083D0F0D0B0
:02030300E032E6
:1002130002016FE493A3F8E493A34003F68001F291
:1002230008DFF48029E493A3F85407240CC8C333EC
:10023300C4540F4420C8834004F456800146F6DFBB
:10024300E4800B0102040810204080900335E47E13
:10025300019360BCA3FF543F30E509541FFEE493B0
:10026300A360010ECF54C025E060A840B8E493A377
:10027300FAE493A3F8E493A3C8C582C8CAC583CAA2
:10028300F0A3C8C582C8CAC583CADFE9DEE780BE5A
:01033D0000BF
:10000E00E709F608DFFA8046E709F208DFFA803ED4
:10001E0088828C83E709F0A3DFFA8032E309F608C1
:10002E00DFFA8078E309F208DFFA807088828C8329
:10003E00E309F0A3DFFA806489828A83E0A3F608DD
:10004E00DFFA805889828A83E0A3F208DFFA804CB7
:10005E0080D280FA80C680D4806980F2803380108E
:10006E0080A680EA809A80A880DA80E280CA8033F7
:10007E0089828A83ECFAE493A3C8C582C8CCC5836F
:10008E00CCF0A3C8C582C8CCC583CCDFE9DEE7803F
:10009E000D89828A83E493A3F608DFF9ECFAA9F0BE
:1000AE00EDFB2289828A83ECFAE0A3C8C582C8CC14
:1000BE00C583CCF0A3C8C582C8CCC583CCDFEADE2D
:1000CE00E880DB89828A83E493A3F208DFF980CC8F
:1000DE0088F0EF60010E4E60C388F0ED2402B40488
:1000EE000050B9F582EB2402B4040050AF2323452F
:0600FE00822390005E73F6
:10010400BC000BBE0029EF8DF084FFADF022E4CCDF
:10011400F875F008EF2FFFEE33FEEC33FCEE9DECA8
:10012400984005FCEE9DFE0FD5F0E9E4CEFD22EDEE
:10013400F8F5F0EE8420D21CFEADF075F008EF2F38
:10014400FFED33FD4007985006D5F0F222C398FD29
:050154000FD5F0EA22C6
:10015900EB9FF5F0EA9E42F0E99D42F0EC6480C81D
:0601690064809845F022BD
:00000001FF
