:0300000002020DEC
:0C020D00787FE4F6D8FD758114020254DD
:1002EA003F065B4F666D7D077F6F000000000000D0
:0B02FA000110AA021300000211000016
:1002CA00D3EF9400EE6480948040147DFA7C00EDB4
:0F02DA001D70011CED4C70F7EF1F70E41E80E1EA
:0102E90022F2
:10015900780A7C007D007BFF7A0279F47E007F06B5
:100169001200DEC2B5758951758C3C758AB0E4F50B
:100179008DF58BD2AFD2A9D2ABD28CC28ED2A58546
:100189001080C2A58511088512097B057A00EB4A02
:100199006026AE08AF097C007D0A120104EB1B70D2
:1001A900011A240AF8A605AE08AF097C007D0A12D7
:1001B90001048E088F0980D679DF7A007B05D2A6E3
:1001C900740A2BF8E69002EA93F580C2A6D2A789B1
:1001D90080C2A778FFAF01EF08800123D8FDF9E4B9
:1001E900F5807F02FE1202CAEB1B70011ABAFFCE1C
:1001F900BBFFCBE5126432451170897FA07E861260
:0402090002CA808025
:03000B0002029955
:10029900C0E0758C3C758AB00514E514700205132D
:1002A900641445137018F513F5140512E51270025C
:1002B9000511D2A56310FF851080C2A5B2B5D0E0A3
:0102C9003202
:10021900020159E493A3F8E493A34003F68001F2A1
:1002290008DFF48029E493A3F85407240CC8C333E6
:10023900C4540F4420C8834004F456800146F6DFB5
:10024900E4800B01020408102040809002FAE47E49
:10025900019360BCA3FF543F30E509541FFEE493AA
:10026900A360010ECF54C025E060A840B8E493A371
:10027900FAE493A3F8E493A3C8C582C8CAC583CA9C
:10028900F0A3C8C582C8CAC583CADFE9DEE780BE54
:0103050000F7
:10000E00E709F608DFFA8046E709F208DFFA803ED4
:10001E0088828C83E709F0A3DFFA8032E309F608C1
:10002E00DFFA8078E309F208DFFA807088828C8329
:10003E00E309F0A3DFFA806489828A83E0A3F608DD
:10004E00DFFA805889828A83E0A3F208DFFA804CB7
:10005E0080D280FA80C680D4806980F2803380108E
:10006E0080A680EA809A80A880DA80E280CA8033F7
:10007E0089828A83ECFAE493A3C8C582C8CCC5836F
:10008E00CCF0A3C8C582C8CCC583CCDFE9DEE7803F
:10009E000D89828A83E493A3F608DFF9ECFAA9F0BE
:1000AE00EDFB2289828A83ECFAE0A3C8C582C8CC14
:1000BE00C583CCF0A3C8C582C8CCC583CCDFEADE2D
:1000CE00E880DB89828A83E493A3F208DFF980CC8F
:1000DE0088F0EF60010E4E60C388F0ED2402B40488
:1000EE000050B9F582EB2402B4040050AF2323452F
:0600FE00822390005E73F6
:10010400BC000BBE0029EF8DF084FFADF022E4CCDF
:10011400F875F008EF2FFFEE33FEEC33FCEE9DECA8
:10012400984005FCEE9DFE0FD5F0E9E4CEFD22EDEE
:10013400F8F5F0EE8420D21CFEADF075F008EF2F38
:10014400FFED33FD4007985006D5F0F222C398FD29
:050154000FD5F0EA22C6
:00000001FF
